:100000000C9457010C9474010C9474010C94A60880
:100010000C9474010C9474010C9474010C9474018C
:100020000C9474010C9474010C9474010C947D086C
:100030000C9474010C9474010C9474010C9474016C
:100040000C9474010C9474010C9474010C9474015C
:100050000C9474010C9474010C9474010C9474014C
:100060000C9474010C947401000000000000000066
:10007000065F060000070300070300247E247E2499
:1000800000242B6A1200006313086463003649568B
:10009000205000000703000000003E410000000067
:1000A000413E000000083E1C3E080008083E0808CB
:1000B0000000E06000000008080808080000606018
:1000C0000000002010080402003E5149453E000097
:1000D000427F400000625149494600224949493661
:1000E000001814127F10002F49494931003C4A4939
:1000F00049300001710905030036494949360006B7
:100100004949291E00006C6C00000000EC6C0000E6
:100110000008142241000024242424240000412249
:100120001408000201590906003E415D551E007E7B
:100130001111117E007F49494936003E414141225B
:10014000007F4141413E007F49494941007F090903
:100150000901003E4149497A007F0808087F0000F4
:10016000417F410000304040403F007F0814224161
:10017000007F40404040007F0204027F007F020475
:10018000087F003E4141413E007F09090906003ECB
:100190004151215E007F090919660026494949320B
:1001A0000001017F0101003F4040403F001F20400F
:1001B000201F003F403C403F0063140814630007C9
:1001C0000870080700714945430000007F41410065
:1001D000000204081020000041417F0000040201D9
:1001E00002048080808080800000030700000020DF
:1001F00054545478007F44444438003844444428DC
:1002000000384444447F00385454540800087E09A0
:1002100009000018A4A4A47C007F04047800000056
:10022000007D4000004080847D00007F1028440055
:100230000000007F4000007C04180478007C040467
:10024000780000384444443800FC444444380038C2
:10025000444444FC004478440408000854545420A6
:1002600000043E442400003C40207C00001C204050
:10027000201C003C6030603C006C10106C00009C46
:10028000A0603C00006454544C0000083E41410012
:10029000000000770000000041413E08000201021A
:1002A0000100003C2623263C001EA1E1211211245E
:1002B0001FBECFEFD8E0DEBFCDBF11E0A0E0B1E0C0
:1002C000E0EEFDE102C005900D92A234B107D9F72E
:1002D00021E0A2E4B1E001C01D92A635B207E1F72A
:1002E0000E94F8080C94EE0E0C94000020E030E020
:1002F000281739074CF448E454E0000041505109F4
:10030000E1F72F5F3F4FF4CF08951092B9008CE0D2
:100310008093B80084E08093BC00089584EA8093C1
:10032000BC008091BC0087FFFCCF089584E98093D6
:10033000BC0008958093BB0084E88093BC0080914A
:10034000BC0087FFFCCF08958091B900887F089595
:10035000CF93C82F0E948E0188E70E949A0180E007
:100360000E949A018C2F0E949A0184E98093BC001C
:10037000CF910895CF92DF92EF92FF920F931F9348
:10038000CF93DF931F92CDB7DEB7182F7B019983F0
:100390000E948E0188E70E949A0180E40E949A01DF
:1003A000C12E9981D92E00E010E00E151F0551F0E5
:1003B000F6018081F2E0CF0ED11C0E949A010F5FFE
:1003C0001F4FF3CF84E98093BC000F90DF91CF9152
:1003D0001F910F91FF90EF90DF90CF9008950F93B2
:1003E0001F93CF93DF931F92CDB7DEB78C01698344
:1003F0000E948E0188E70E949A0180E00E949A0183
:10040000698180EB860F0E949A01802F8F700E9475
:100410009A01C80124E0959587952A95E1F78F7098
:10042000805F0E949A0184E98093BC000F90DF9165
:10043000CF911F910F910895CF92DF92FF920F936A
:100440001F93CF93DF936C01C0E0D0E084E9F82ED6
:10045000BE0180E090E00E94EF010E948E0188E7DB
:100460000E949A0180E40E949A0100E810E0C11401
:10047000D10411F480E001C08FEF0E949A01015075
:100480001109A9F7F092BC002196C830D10501F7F7
:1004900060E070E080E090E0DF91CF911F910F91DC
:1004A000FF90DF90CF900C94EF01FF920F931F937A
:1004B000CF93DF93EC018B01F22EBA010E94EF0182
:1004C0000E948E0188E70E949A0180E40E949A01AE
:1004D000C017D1072CF48F2D0E949A012196F8CFD6
:1004E00084E98093BC00DF91CF911F910F91FF9021
:1004F00008958EEA90E00E94A80180E290E00E94B8
:10050000A80180E090E00E94A80180EB90E00E94AA
:10051000A80188EC90E00E94A80180E090E00E9491
:10052000A80180E190E00E94A80180E490E00E9490
:10053000A80181E890E00E94A8018FEF90E00E945E
:10054000A80181EA90E00E94A80186EA90E00E945A
:10055000A80188EA90E00E94A8018FE390E00E9441
:10056000A80184EA90E00E94A80183ED90E00E9437
:10057000A80180E090E00E94A80185ED90E00E9433
:10058000A80180EF90E00E94A80189ED90E00E9410
:10059000A80182E290E00E94A8018AED90E00E940A
:1005A000A80182E190E00E94A8018BED90E00E94FA
:1005B000A80180E290E00E94A8018DE890E00E94EE
:1005C000A80184E190E00E94A8018FEA90E00C94D9
:1005D000A801CF93C82F0E948E0188E70E949A013C
:1005E00080E40E949A018C2F0E949A0184E98093F2
:1005F000BC00CF910895EF92FF920F931F93CF937A
:10060000DF93C42F79010E94EF0186E0C89FE001CB
:10061000112406E010E0CA5BD109FE01E01BF10BDA
:10062000E859FF4FE114F10411F4849102C0849160
:1006300080950E94E9020150110979F7DF91CF916D
:100640001F910F91FF90EF9008952F923F924F923C
:100650005F926F927F928F929F92AF92BF92CF9252
:10066000DF92EF92FF920F931F93CF93DF93CDB75B
:10067000DEB760970FB6F894DEBF0FBECDBF5C014A
:100680006B0129018E010F5F1F4F80E1F80111926C
:100690008A95E9F77801F6E04F9F10011124D801FF
:1006A00060E070E080EC281A310866246394712CB5
:1006B000F101E60FF71FE859FF4F88248394912C2E
:1006C00020E030E04114510411F4849102C084917F
:1006D000809590E0022E02C0959587950A94E2F7E6
:1006E00080FF1AC0C901880F991FA30102C0440FDF
:1006F000551F8A95E2F78D919C911197480F591FCC
:10070000C301082C02C0880F991F0A94E2F7840FD6
:10071000951F11969C938E932F5F3F4F82E0880E1A
:10072000911C2830310571F66F5F7F4F129666304D
:10073000710509F0BDCFB601C5010E94EF014E0160
:10074000EDE08E0E911CF80170800E5F1F4F872D1B
:100750000E94E902872D0E94E9020815190599F700
:10076000B6016F5F7F4FC5010E94EF01F701118154
:10077000F2E0EF0EF11C812F0E94E902812F0E940E
:10078000E902E814F90491F760960FB6F894DEBF19
:100790000FBECDBFDF91CF911F910F91FF90EF90D2
:1007A000DF90CF90BF90AF909F908F907F906F9091
:1007B0005F904F903F902F9008959F92AF92BF927D
:1007C000CF92DF92EF92FF920F931F93CF93DF931D
:1007D0007C016B01922E822F90E0019626E0289FEB
:1007E0005001299FB00C1124EA014991442369F07A
:1007F0009801B601C701911003C00E94FB0202C01C
:100800000E942503EA0CFB1CF0CFDF91CF911F91D2
:100810000F91FF90EF90DF90CF90BF90AF909F909F
:1008200008952F923F924F925F926F927F928F9294
:100830009F92AF92BF92CF92DF92EF92FF920F936F
:100840001F93CF93DF9300D000D000D0CDB7DEB799
:100850006B017C015C834B833E832D8361157105A5
:100860008105910539F480E3F9018083118281E0EB
:1008700090E090C097FF0DC0F094E094D094C094A5
:10088000C11CD11CE11CF11C21E030E03A8329831A
:1008900002C01A8219828D819E810C96ED81FE81A3
:1008A0001192E817F907E1F709E010E0212C312C4B
:1008B000812C8AEC982E8AE9A82E8BE3B82E9AE038
:1008C000492E512C612C712CC701B601A501940150
:1008D0000E94480DE22FA22FB32FA50194010E9480
:1008E000670DC61AD70AE80AF90AD1011996A01BA2
:1008F000B10B4D815E81A40FB51FE05DEC93C50186
:10090000B401A30192010E94480D49015A018B8153
:100910009C810817190779F40115110561F09FEF03
:10092000291A390AF101E01BF10B2D813E81E20FFA
:10093000F31F3EE231870150110930F6ED81FE814F
:1009400030E2CF014D815E81841B950B20812033E5
:1009500011F43193F6CFE981FA81EF2B31F0019751
:10096000FA01E80FF91F2DE22083ED81FE819F013E
:100970004D815E81241B350BDF01A80FB91F4C91FF
:10098000442311F04193F3CFED81FE81E20FF31F79
:100990001082C90126960FB6F894DEBF0FBECDBFF8
:1009A000DF91CF911F910F91FF90EF90DF90CF904B
:1009B000BF90AF909F908F907F906F905F904F907F
:1009C0003F902F9008952F923F924F925F926F9297
:1009D0007F928F929F92AF92BF92CF92DF92EF92CF
:1009E0000F931F93CF93DF935C014B0119012A01F1
:1009F000380180E190E00E94AB0DEC01009719F105
:100A000000E110E09C01A301C201B1010E941104A8
:100A100086012E2DAE01B401C5010E94DD03CE0179
:100A2000DF91CF911F910F91EF90DF90CF90BF900A
:100A3000AF909F908F907F906F905F904F903F907E
:100A40002F900C94400EDF91CF911F910F91EF905A
:100A5000DF90CF90BF90AF909F908F907F906F90DE
:100A60005F904F903F902F9008958F929F92AF92FA
:100A7000BF92EF92FF920F931F93CF93DF934B019F
:100A80005C0180E190E00E94AB0DEC017C0140969E
:100A9000FE011192E817F907E1F7C501B4012AE058
:100AA00030E040E050E00E94480DCA01B90100E189
:100AB00010E09E0142E050E00E94110405E010E0C9
:100AC000F70141917F01442351F020E030E062E0E2
:100AD00070E0C8010E942503045F1F4FF1CFCE01D3
:100AE000DF91CF911F910F91FF90EF90BF90AF904A
:100AF0009F908F900C94400E0F931F93CF93DF9392
:100B000020914201309143018217930709F45AC0A2
:100B1000EC01CF3F8FEFD80789F4C0E0D0E0BE01F1
:100B20006F5F7F4F20E030E046E050E0CE010E9452
:100B300055022296C038D10591F744C0C138D1057D
:100B400014F0C0E8D0E0C217D307B4F48E0180914E
:100B50004201909143010297081719070CF5B8015B
:100B60006F5F7F4F20E030E046E050E0C8010E9418
:100B700055020E5F1F4FEBCFD0934301C09342014C
:100B80008091480190914901A0914A01B0914B0197
:100B90008093440190934501A0934601B09347018F
:100BA00000E010E00C171D076CF4B8016F5F7F4F79
:100BB0002EE130E046E050E0C8010E9455020E5F91
:100BC0001F4FF0CFDF91CF911F910F910895EF92BA
:100BD000FF920F931F93CF93DF938C0180E190E0FE
:100BE0000E94AB0DEC01FC0140961192E817F90749
:100BF000E1F7B801110F880B990B06E010E09E0198
:100C000041E050E00E9411047C0100E010E020E08F
:100C1000AE0160E070E08AE590E00E94DD0386E0CE
:100C20008E9DF0018F9DF00D112420E046E051E0F3
:100C300060E070E0CF01865A9F4F0E94DD03CE0135
:100C4000DF91CF911F910F91FF90EF900C94400E88
:100C50000F931F93CF93C82F00E010E020E049E0EE
:100C600051E060E070E080E090E00E94DD0341E44C
:100C70004C0F20E030E060E070E088E190E0CF9140
:100C80001F910F910C94FB020F931F9300E010E053
:100C900020E04EE051E065E070E080E090E00E94EE
:100CA000DD0320E043E251E067E070E080E090E0A7
:100CB0000E94DD031F910F9108954F925F926F92F2
:100CC0007F928F929F92AF92BF92CF92DF92EF92DC
:100CD000FF92CF93DF93EA012196CC0FDD1FCC0F5B
:100CE000DD1FF8944C01BB2497FCB094AB2C74012D
:100CF000DD24CC249B01AC012C193D094E095F0970
:100D000069017A01692F992767FD9095792F892FBD
:100D10004D2C5E2C6F2C772467FC7A94F999FECFCA
:100D2000CE010E94E00EF999FECF682DCE0101960A
:100D30000E94E00EF999FECF642DCE0102960E942A
:100D4000E00EF999FECF6C2DCE0103960E94E00EC5
:100D50007894DF91CF91FF90EF90DF90CF90BF908C
:100D6000AF909F908F907F906F905F904F9008957D
:100D7000FF920F931F93CF93DF930196EC01CC0F5B
:100D8000DD1FCC0FDD1FF894CE010E94D80EF82E87
:100D9000CE0101960E94D80E082FCE0102960E9425
:100DA000D80E182FCE0103960E94D80E482F7894A3
:100DB0008F2D90E0A0E0B0E0BA2FA92F982F8827C0
:100DC000800F911DA11DB11DDC0199278827212FBE
:100DD00030E0322F2227820F931FA11DB11DBC01CD
:100DE000CD01640F711D811D911DDF91CF911F9168
:100DF0000F91FF900895CF92DF92EF92FF920F93A1
:100E00001F930E94B8068B019C0100581F49254D75
:100E10003109013317452540310598F42AE030E0C7
:100E200040E050E00E94480DC12CD12CE12CF12C67
:100E300002E010E060E070E084E290E00E94E304F1
:100E40000BC000E010E020E048E351E060E070E01B
:100E500084E290E00E94DD031F910F91FF90EF90DC
:100E6000DF90CF900895DC01CB0180589F49A54DBC
:100E7000B10921E030E081339745A540B10510F07C
:100E800020E030E0C9010895F894F999FECF682F69
:100E900080E090E00E94E00E78940895F89480E05D
:100EA00090E00E94D80E282F30E07894803110F422
:100EB000C90108958FEF9FEF0895805C80937C00B7
:100EC00083E090E00E947601EAE7F0E080818064B0
:100ED000808383E090E00E947601209178008091E9
:100EE000790090E0982F8827820F911D0895289807
:100EF00020E130E040E050E8BA0168237923672B15
:100F000011F0299A01C029982A9A2A98569547954E
:100F10002150310989F7289A08958F929F92AF92B4
:100F2000BF92CF92DF92EF92FF920F931F93CF93D6
:100F3000DF9300D000D0CDB7DEB77A0123E3298359
:100F400022E22A8321E32B8320E22C836058764916
:100F5000884991090E944F0C20E23CEB4EE35CE48F
:100F60000E94A50B20E030E040E85FE40E94DB0C2B
:100F70000E941E0C4B015C01E114F10421F080E0A1
:100F800098EF0E947707CE0101966C0108E110E00E
:100F9000F60121916F0130E0322F2227D501C401E3
:100FA000002E04C0B595A795979587950A94D2F71A
:100FB0009927820F931F0E94770708501109083F55
:100FC000FFEF1F0729F7EF2819F080E090EC02C02F
:100FD00080E090E80F900F900F900F90DF91CF91ED
:100FE0001F910F91FF90EF90DF90CF90BF90AF9047
:100FF0009F908F900C9477072F923F924F925F9221
:101000006F927F928F929F92AF92BF92CF92DF9218
:10101000EF92FF920F931F93CF93DF93C0E0D0E046
:1010200089B190E00C2E02C0959587950A94E2F75D
:1010300080FD49C08090480190904901A0904A01EC
:10104000B0904B0181E090E01C010C2E02C0220CFC
:10105000331C0A94E2F78AE0482E512C612C712C43
:1010600029B130E02221332180914801909149013A
:10107000A0914A01B0914B01232BB9F4BC01CD01E1
:10108000681979098A099B09A30192010E94480DF8
:10109000C12CD12CE12CF12C0FEF1FEF61E070E09F
:1010A00082E790E00E94E304DBCF88199909AA093E
:1010B000BB094497A105B1051CF4CE0101960AC0F5
:1010C000CE01049607C02196C330D10509F0A8CF00
:1010D00080E090E0DF91CF911F910F91FF90EF9012
:1010E000DF90CF90BF90AF909F908F907F906F9048
:1010F0005F904F903F902F9008951F920F920FB6E0
:101100000F9211248F939F93AF93BF9380914801C7
:1011100090914901A0914A01B0914B010196A11D06
:10112000B11D8093480190934901A0934A01B09367
:101130004B011092510110925001BF91AF919F91BC
:101140008F910F900FBE0F901F9018951F920F92C6
:101150000FB60F9211242F933F934F935F938F936A
:101160009F9383B1829586958695837090E09C01CC
:10117000359527958227932720914C0130914D0179
:1011800082179307E9F0281B390B2370332722506D
:10119000310940914E0150914F01240F351F30937A
:1011A0004F0120934E0190934D0180934C0180910B
:1011B00050019091510102969093510180935001FA
:1011C000D89A9F918F915F914F913F912F910F905E
:1011D0000FBE0F901F901895809150019091510172
:1011E0009C01229FC001239F900D900D1124089512
:1011F000CF93DF93CDB7DEB72E970FB6F894DEBF4F
:101200000FBECDBF80EC85B980E388B987E08BB98C
:1012100084B980916B00806C80936B008091680032
:10122000816080936800109280008DE0809381003F
:1012300093E0909389008093880080916F00826092
:1012400080936F0083E880937A0080E090E00E94B2
:101250005D070E94850184E190E00E9476010E9472
:10126000790284E190E00E94760180E090E00E94A3
:101270001C020E944E079E878D87409710F01E86A5
:101280001D868D859E850E9428068D859E850E94DF
:10129000B8064B015C01DC01CB0180589F49A54D8C
:1012A000B10981339745A540B10538F060EC862E31
:1012B0006CEA962E68EDA62EB12C41E050E0C501F7
:1012C000B4010E948D0740E050E0C501B4010E94C6
:1012D0008D07C501B4010E9435058D859E850E944C
:1012E000FB06789481E090E00E945D07BC01990FB5
:1012F000880B990B0E944F0C20EA3AE14FE25EE323
:101300000E94DB0C0E94170CCB010E94E705809124
:10131000480190914901A0914A01B0914B01898700
:101320009A87AB87BC878D859E850E9428060E9480
:10133000440680914E0190914F01029704F1209153
:10134000500130915101229FC001239F900D900DBB
:101350001124092E000CAA0BBB0B880E991EAA1E85
:10136000BB1E40E050E0C501B4010E948D07C501DD
:10137000B4010E94350510924F0110924E018091E8
:101380004E0190914F018F3F9F4F04F520915001E6
:1013900030915101229FC001239F900D900D112487
:1013A000092E000CAA0BBB0B881A990AAA0ABB0AC1
:1013B00040E050E0C501B4010E948D07C501B401B1
:1013C0000E94350510924F0110924E014091480144
:1013D0005091490160914A0170914B0189859A852C
:1013E000AB85BC85C296A11DB11D84179507A607C4
:1013F000B7070CF581E090E00E945D07BC01990FF2
:10140000880B990B0E944F0C20EA3AE14FE25EE311
:101410000E94DB0C0E94170CCB010E94E705209173
:1014200048013091490140914A0150914B0129876F
:101430003A874B875C878091440190914501A09148
:101440004601B09147010A96A11DB11D4091480186
:101450005091490160914A0170914B0184179507A1
:10146000A607B707C4F48FEF9FEF0E947C05109288
:101470004301109242018091480190914901A0914D
:101480004A01B0914B018093440190934501A09390
:101490004601B093470183E090E00E945D077C0124
:1014A00083E090E00E945D07EE0CFF1C8E0D9F1DF7
:1014B000959587950E947C050E94FC077C01181673
:1014C00019060CF036CF0E94FC07892BE1F731E0BA
:1014D000E316F104F1F045E0E416F10409F018C157
:1014E0004D855E85C501B4010E945D068D859E8592
:1014F0000E9444078D859E850E9428068D859E85C5
:101500000E94FB0640E050E0C501B4010E948D0737
:10151000FFC00E94FC072D843E8450E12516310453
:1015200024F48FEF281A380A02C0212C312CC10173
:101530000E94B8062B013C01DC01CB0180589F4979
:10154000A54DB10981339745A540B10508F4ECC01C
:10155000209148013091490140914A0150914B013D
:101560002D833E834F8358871A8219821C821B82E7
:10157000409148015091490160914A0170914B019D
:101580008D819E81AF81B885C196A11DB11D841743
:101590009507A607B70734F48B819C81892B09F442
:1015A000BCCFB6C0A981BA81AB2BB1F781E090E086
:1015B0000E945D077C0181E090E00E945D07EE0CD7
:1015C000FF1C8E0D9F1D959587950E947C0580912F
:1015D000480190914901A0914A01B0914B01BC0191
:1015E000CD012D813E814F815885621B730B840B89
:1015F000950B2AE030E040E050E00E94480DC12CFD
:10160000D12CE12CF12C0FEF1FEF61E070E082E7AD
:1016100090E00E94E3040E94FC077C01892B09F4FE
:10162000A7CF00E010E020E04FE351E061E070E080
:1016300082E790E00E94DD0332E0E316F10431F12D
:1016400043E0E416F10409F452C0EA94EF2809F0EB
:101650008FCFC1010E942806C1010E94FB0640E015
:1016600050E0C301B2010E948D07C301B2010E9484
:101670003505530142013E862D8681E090E09A8334
:101680008983A1E0B0E0BC83AB8372CFC1010E942B
:10169000B8066B017C01DC01CB0180589F49A54D48
:1016A000B10981339745A540B10508F061CFC1016B
:1016B0000E942806C1010E94FB0640E050E0C701DD
:1016C000B6010E948D07C701B6010E943505C10110
:1016D0000E944407460157013E862D86E1E0F0E076
:1016E000FA83E98321E030E03C832B8341CF2091D2
:1016F00048013091490140914A0150914B012D839D
:101700003E834F83588741E050E05A83498330CF6E
:1017100000E010E020E04FE351E061E070E082E79C
:1017200090E00E94DD0305CEC1010E942806C101A0
:101730000E94FB0640E050E0C301B2010E948D0709
:10174000C301B2010E94350503CF0E94B90B0C946E
:10175000A10C0E949A0C58F00E94930C40F029F4BE
:101760005F3F29F00C948A0C51110C94D50C0C9409
:10177000900C0E94B20C68F39923B1F3552391F3B6
:10178000951B550BBB27AA2762177307840738F0F0
:101790009F5F5F4F220F331F441FAA1FA9F335D04D
:1017A0000E2E3AF0E0E832D091505040E695001C01
:1017B000CAF72BD0FE2F29D0660F771F881FBB1FBB
:1017C000261737074807AB07B0E809F0BB0B802D99
:1017D000BF01FF2793585F4F3AF09E3F510578F0C5
:1017E0000C948A0C0C94D50C5F3FE4F3983ED4F330
:1017F000869577956795B795F7959F5FC9F7880F99
:10180000911D9695879597F90895E1E0660F771FEA
:10181000881FBB1F621773078407BA0720F0621B7B
:10182000730B840BBA0BEE1F88F7E09508950E94A6
:101830001E0C6894B1110C94D50C08950E94BA0C3A
:1018400088F09F5798F0B92F9927B751B0F0E1F081
:10185000660F771F881F991F1AF0BA95C9F714C031
:10186000B13091F00E94D40CB1E008950C94D40CE6
:10187000672F782F8827B85F39F0B93FCCF386956A
:1018800077956795B395D9F73EF4909580957095C7
:1018900061957F4F8F4F9F4F0895E89409C097FB44
:1018A0003EF490958095709561957F4F8F4F9F4F37
:1018B0009923A9F0F92F96E9BB279395F69587957B
:1018C00077956795B795F111F8CFFAF4BB0F11F43E
:1018D00060FF1BC06F5F7F4F8F4F9F4F16C08823E5
:1018E00011F096E911C0772321F09EE8872F762F1B
:1018F00005C0662371F096E8862F70E060E02AF05C
:101900009A95660F771F881FDAF7880F9695879547
:1019100097F9089597F99F6780E870E060E008956F
:101920009FEF80EC089500240A94161617061806F7
:101930000906089500240A941216130614060506D3
:101940000895092E0394000C11F4882352F0BB0F64
:1019500040F4BF2B11F460FF04C06F5F7F4F8F4FC7
:101960009F4F089557FD9058440F551F59F05F3F02
:1019700071F04795880F97FB991F61F09F3F79F0B1
:1019800087950895121613061406551FF2CF469533
:10199000F1DF08C0161617061806991FF1CF8695B5
:1019A0007105610508940895E894BB276627772799
:1019B000CB0197F908950E94EE0C0C94A10C0E94A3
:1019C000930C38F00E949A0C20F0952311F00C949F
:1019D0008A0C0C94900C11240C94D50C0E94B20C1F
:1019E00070F3959FC1F3950F50E0551F629FF00172
:1019F000729FBB27F00DB11D639FAA27F00DB11D8B
:101A0000AA1F649F6627B00DA11D661F829F222713
:101A1000B00DA11D621F739FB00DA11D621F839F9A
:101A2000A00D611D221F749F3327A00D611D231F70
:101A3000849F600D211D822F762F6A2F11249F57BE
:101A400050409AF0F1F088234AF0EE0FFF1FBB1FC1
:101A5000661F771F881F91505040A9F79E3F510580
:101A600080F00C948A0C0C94D50C5F3FE4F3983E04
:101A7000D4F3869577956795B795F795E7959F5F2A
:101A8000C1F7FE2B880F911D9695879597F90895BC
:101A9000052E97FB1EF400940E945F0D57FD07D0A2
:101AA0000E946F0D07FC03D04EF40C945F0D50950F
:101AB0004095309521953F4F4F4F5F4F089590953A
:101AC0008095709561957F4F8F4F9F4F0895B7FF19
:101AD0000C94910D0E94910D821B930B0895A1E22D
:101AE0001A2EAA1BBB1BFD010DC0AA1FBB1FEE1F98
:101AF000FF1FA217B307E407F50720F0A21BB30BE3
:101B0000E40BF50B661F771F881F991F1A9469F75E
:101B100060957095809590959B01AC01BD01CF01BA
:101B200008950E949C0DA59F900DB49F900DA49FB9
:101B3000800D911D11240895A29FB001B39FC00193
:101B4000A39F700D811D1124911DB29F700D811DE9
:101B50001124911D0895CF93DF938230910510F4E5
:101B600082E090E0E0915401F091550120E030E0F6
:101B7000C0E0D0E0309711F14081518148175907FA
:101B8000C0F04817590761F482819381209719F0BA
:101B90009B838A832BC0909355018093540126C068
:101BA0002115310519F04217530718F49A01BE01A7
:101BB000DF01EF010280F381E02DDCCF211531053B
:101BC00009F1281B390B2430310590F412968D91C0
:101BD0009C9113976115710521F0FB01938382831A
:101BE00004C09093550180935401FD01329644C086
:101BF000FD01E20FF31F81939193225031092D9340
:101C00003C933AC02091520130915301232B41F46F
:101C1000209102013091030130935301209352012E
:101C200020910001309101012115310541F42DB7BA
:101C30003EB74091040150910501241B350BE09102
:101C40005201F0915301E217F307A0F42E1B3F0B52
:101C50002817390778F0AC014E5F5F4F241735071E
:101C600048F04E0F5F1F50935301409352018193F0
:101C7000919302C0E0E0F0E0CF01DF91CF910895B1
:101C80000F931F93CF93DF93009709F48CC0FC014F
:101C9000329713821282009154011091550101155F
:101CA000110581F420813181820F931F209152010F
:101CB000309153012817390779F5F0935301E093D8
:101CC000520171C0D80140E050E0AE17BF0750F498
:101CD00012962D913C911397AD012115310509F113
:101CE000D901F3CF9D01DA013383228360817181B1
:101CF000860F971F8217930769F4EC0128813981B9
:101D0000260F371F2E5F3F4F318320838A819B81AF
:101D100093838283452B29F4F0935501E09354017A
:101D200042C01396FC93EE931297ED01499159919D
:101D30009E01240F351FE217F30771F48081918112
:101D4000840F951F029611969C938E9382819381A6
:101D500013969C938E931297E0E0F0E0D8011296D0
:101D60008D919C911397009719F0F8018C01F6CF93
:101D70008D919C9198012E5F3F4F820F931F209170
:101D80005201309153012817390769F4309729F42B
:101D9000109255011092540102C0138212821093C6
:101DA000530100935201DF91CF911F910F9108953C
:101DB000F999FECF92BD81BDF89A992780B5089513
:101DC000262FF999FECF1FBA92BD81BD20BD0FB657
:101DD000F894FA9AF99A0FBE01960895F894FFCFF5
:101DE00000005601200056200056464F3A0053315D
:101DF0002033203520372039202B3130202B323032
:101E000064420030203157203257202033572020A1
:101E100034572020203557002D2D2D2D2D2D2D2DE3
:021E20000000C0
:00000001FF
